S01200005350495F4472697665722E737265635B
S11300000C942A000C943C000C943C000C943C008E
S11300100C943C000C943C000C943C000C943C006C
S11300200C943C000C943C000C9439010C943C005E
S11300300C94AC000C943C000C943C000C943C00DC
S11300400C943C000C943C000C943C000C943C003C
S11300500C943C0011241FBECFE5D8E0DEBFCDBF19
S113006020E0A0E6B0E001C01D92A136B207E1F79E
S11300700E9496000C9443010C940000813041F0DE
S113008028F0823039F0833039F008956ABB08953E
S113009067BB089564BB089561BB0895813041F046
S11300A028F0823039F0833039F008956BBB08951D
S11300B068BB089565BB089562BB08954F3FC1F4C2
S11300C0813051F028F0823059F0833069F008957E
S11300D08AB3682B6ABB089587B3682B67BB0895FE
S11300E084B3682B64BB089581B3682B61BB089506
S11300F041111BC0813059F028F0823069F08330FF
S113010081F008958AB3609568236ABB089587B324
S11301106095682367BB089584B36095682364BBC6
S1130120089581B36095682361BB089500E820E2D7
S113013040E062E080E40E94F9006FEF83E00E94F7
S11301403E0060E083E00E944E006AEF70E080E0D1
S113015090E00E94D600F9CF1F920F920FB60F9233
S113016011242F933F934F935F936F937F938F93B8
S11301709F93AF93BF93EF93FF938FB180936000EE
S11301806091600083E00E944E00FF91EF91BF9167
S1130190AF919F918F917F916F915F914F913F911B
S11301A02F910F900FBE0F901F9018950F931F93D0
S11301B08B019C01672B682B692B81F417C0019676
S11301C0823FA8E09A07D9F74F5F5F4F6F4F7F4F89
S11301D0401751076207730731F408C040E050E04C
S11301E0BA01F0E0E0E08F2F9E2FE9CF1F910F912D
S11301F00895FF920F931F93CF93DF93C82FD62FA9
S1130200F42E122F1DB8803491F0803521F540E092
S113021060E481E00E945E004FEF60E281E00E94B2
S11302205E004FEF60E881E00E945E0014C04FEF73
S113023060E481E00E945E0040E060E281E00E94B0
S11302405E0040E060E881E00E945E0040E060E122
S113025081E00E945E000F29102BD12BCD2BCDB94C
S11302608FB780688FBFDF91CF911F910F91FF905F
S113027008951F920F920FB60F9211240F900FBE84
S10D02800F901F901895F894FFCF1B
S9030000FC
